:020000040800F2
:1000000000500020B5150008551300085D130008C6
:10001000651300086D130008751300080000000048
:100020000000000000000000000000007D13000838
:10003000891300080000000095130008A1130008B0
:10004000FD150008FD150008FD150008FD15000848
:10005000FD150008FD150008FD150008FD15000838
:10006000FD150008FD150008FD150008FD15000828
:10007000FD150008FD150008FD150008FD15000818
:10008000FD150008FD150008FD150008FD15000808
:10009000FD150008FD150008FD150008FD150008F8
:1000A000FD150008FD150008FD150008FD150008E8
:1000B000AD130008FD150008FD150008FD1500082A
:1000C000FD150008FD150008FD150008FD150008C8
:1000D000FD150008FD150008FD150008FD150008B8
:1000E000C1130008FD150008FD1500080000000000
:1000F0000000000000000000000000000000000000
:0C01000000000000000000005FF808F1A3
:10010C0010B5054C237833B9044B13B10448AFF345
:10011C0000800123237010BD8C0000200000000023
:10012C002C41000808B5034B1BB103490348AFF33E
:10013C00008008BD00000000900000202C41000849
:10014C0080B483B000AF7860094A7B6852F82330E2
:10015C00012B06D1064A7B68002142F823100123AB
:10016C0000E0002318460C37BD4680BC704700BF2A
:10017C00B400002080B483B000AF7860044A7B6880
:10018C00012142F8231000BF0C37BD4680BC7047DC
:10019C00B400002080B582B000AF01216E4801F0A0
:1001AC0041FD03461A466D4B1A6002216A4801F064
:1001BC0039FD03461A46694B5A604FF400516848A2
:1001CC0001F030FD03461A46644B9A6000237B60B5
:1001DC00B8E0644A7B6852F8232063497B6841F895
:1001EC002320624A7B6852F823205E497B6841F8E1
:1001FC0023205A4A7B6852F823205C497B6841F8DB
:10020C0023205B4A7B6852F82330063B032B00F219
:10021C008D8001A252F823F03502000881020008FB
:10022C00D702000821030008504A7B6852F823309B
:10023C00002B40F081804B4A7B6852F823204B49BD
:10024C007B6851F823309A4276D1474A7B6852F842
:10025C00232044497B6851F823309A426CD1444A9C
:10026C007B68072142F82310424A7B68002142F840
:10027C00231061E03F4A7B6852F82330002B09DDE4
:10028C003C4A7B6852F823305A1E3A497B6841F845
:10029C00232054E0354A7B6852F82330002B0ED1D2
:1002AC00334A7B68082142F82310324A7B684FF4AA
:1002BC00FA7142F823107868FFF75CFF3FE02C4A94
:1002CC007B68062142F8231039E0284A7B6852F8F3
:1002DC002330012B05D1264A7B68062142F82310D6
:1002EC002DE0244A7B6852F82330002B09DD214A8B
:1002FC007B6852F823305A1E1E497B6841F8232034
:10030C001DE01B4A7B68092142F823107868FFF72F
:10031C0031FF14E0154A7B6852F82330012B0DD1C4
:10032C00134A7B68062142F8231007E0104A7B68C9
:10033C00062142F8231002E000BF00E000BF7B68FA
:10034C0001337B607B68022B7FF743AF00BF00BF9C
:10035C000837BD4680BD00BF00080140C00000202A
:10036C000010014018000020240000200C00002088
:10037C0000000020A800002080B400AF064B002233
:10038C001A60064B00221A60054B00221A6000BF4F
:10039C00BD4680BC704700BFCC000020D0000020C0
:1003AC00D400002080B500AF074B5B68012B09D14E
:1003BC00064B1B680133054A13604FF47A71012018
:1003CC0001F000F800BF80BDD8010020CC00002057
:1003DC0080B500AF9F4B1B68013B042B00F2A18141
:1003EC0001A252F823F000BF0904000843040008DE
:1003FC00F7040008AB0500087D060008002100206A
:10040C0001F064F80021002001F07AF800210020AE
:10041C0001F092F80021002001F0AAF84FF47A7153
:10042C00012000F0CFFFFFF7A7FF00F0A0FC894BE5
:10043C0002221A607EE10121012001F047F800211F
:10044C00012001F05DF80121012001F075F8002177
:10045C00012001F08DF8804B1A68804B1B68D31A71
:10046C007F4A13607F4B1A687C4B1B68D31A7E4AF9
:10047C0013607B4B1B681A460021012000F07EFCA8
:10048C00794B1B681A460021022000F077FCFFF71D
:10049C0089FF714B1A68754B1B68D21A6F4B1B681E
:1004AC009A4205DC6D4B00221A606A4B03221A60DB
:1004BC000020FFF745FE0346012B40F03481FFF787
:1004CC005BFF644B0C221A600021002000F0FEFF41
:1004DC000021002001F014F80021002001F02CF87C
:1004EC000021002001F044F81DE10121012000F061
:1004FC00EDFF0121002001F003F80121012001F0A2
:10050C001BF80121002001F033F8584B1A68534BAB
:10051C001B68D31A524A1360544B1A684F4B1B6812
:10052C00D31A514A13604E4B1B681A460021012006
:10053C0000F024FC4C4B1B681A460021022000F0F2
:10054C001DFCFFF72FFF444B1A68464B1B68D21A51
:10055C00424B1B689A4205DC404B00221A603D4B13
:10056C0004221A600020FFF7EBFD0346012B40F03C
:10057C00DC80FFF701FF374B0C221A6000210020B2
:10058C0000F0A4FF0021002000F0BAFF00210020A1
:10059C0000F0D2FF0021002000F0EAFFC5E00021AE
:1005AC00012000F093FF0121012000F0A9FF0021A0
:1005BC00012000F0C1FF0121012000F0D9FF294BDF
:1005CC001A68264B1B68D31A254A1360224B1A68EB
:1005DC00224B1B68D31A244A1360214B1B681A4602
:1005EC000021012000F0CAFB1F4B1B681A4600219A
:1005FC00022000F0C3FBFFF7D5FE174B1A681B4B0C
:10060C001B68D21A154B1B689A4205DC134B00224F
:10061C001A60104B05221A600020FFF791FD03466B
:10062C00012B40F08480FFF7A7FE0A4B0C221A60C6
:10063C000021002000F04AFF0021002000F060FFA4
:10064C000021002000F078FF0021002000F090FF36
:10065C006DE000BFD8000020DC000020CC000020A2
:10066C00D0000020E0000020D4000020E400002096
:10067C000121002000F02AFF0121012000F040FFA1
:10068C000121002000F058FF0121012000F070FF33
:10069C00294B1A68294B1B68D31A294A1360264B1D
:1006AC001A68264B1B68D31A264A1360244B1B6806
:1006BC001A460021012000F061FB224B1B681A46F0
:1006CC000021022000F05AFBFFF76CFE1E4B1A684B
:1006DC001E4B1B68D21A194B1B689A4205DC174B30
:1006EC0000221A601A4B02221A600020FFF728FD24
:1006FC000346012B1DD1FFF73FFE154B0C221A6050
:10070C000021002000F0E2FE0021002000F0F8FEA5
:10071C000021002000F010FF0021002000F028FF35
:10072C0007E000BF06E000BF04E000BF02E000BF2E
:10073C0000E000BF00BF80BDE4000020CC00002022
:10074C00D0000020D4000020DC000020E0000020BD
:10075C00D800002080B500AF864B1B680E2B00F034
:10076C00AD800E2B00F3FC800C2B02D00D2B53D044
:10077C00F6E00121012000F0A9FE0121012000F08A
:10078C00BFFE0121012000F0D7FE0121012000F065
:10079C00EFFE0021012000F00DFB774800F0D2FAAB
:1007AC000021022000F006FB744800F0CBFA744BD9
:1007BC001B681A460C21022000F0E0FA0020FFF71B
:1007CC00BFFC0346012B02D16A4B0D221A6001209B
:1007DC00FFF7B6FC0346012B40F0C480684B1B6846
:1007EC000133674A1360634B0F221A60002101200A
:1007FC0000F0E0FA604800F0A5FA0021022000F0B9
:10080C00D9FA5E4800F09EFA5D4B1B681A460C2123
:10081C00022000F0B3FAA5E00021012000F056FE02
:10082C000021012000F06CFE0021012000F084FE6C
:10083C000021012000F09CFE0021012000F0BAFAFA
:10084C00504800F07FFA0021022000F0B3FA4E4825
:10085C0000F078FA4D4B1B681A460D21022000F06F
:10086C008DFA0020FFF76CFC0346012B02D1414BA3
:10087C000E221A600120FFF763FC0346012B73D193
:10088C00424B1B680133414A13603A4B10221A60E9
:10089C000021012000F08EFA3A4800F053FA0021B2
:1008AC00022000F087FA384800F04CFA374B1B68EE
:1008BC001A460D21022000F061FA55E001210020BA
:1008CC0000F004FE0121002000F01AFE012100209E
:1008DC0000F032FE0121002000F04AFE0021012030
:1008EC0000F068FA2A4800F02DFA0021022000F0EE
:1008FC0061FA284800F026FA274B1B681A460E218D
:10090C00022000F03BFA0020FFF71AFC0346012BF3
:10091C0002D1184B02221A600120FFF711FC03468A
:10092C00012B23D11C4B1B6801331B4A1360114B49
:10093C0011221A600021012000F03CFA144800F04A
:10094C0001FA0021022000F035FA124800F0FAF901
:10095C00114B1B681A460E21022000F00FFA05E01D
:10096C0000BF04E000BF02E000BF00E000BF00BF1A
:10097C0080BD00BFD800002044410008544100084D
:10098C00E80000206041000870410008F0000020E1
:10099C008041000890410008EC00002080B500AFB9
:1009AC00764B1B68112B00F08B80112B00F3DE8033
:1009BC000F2B02D0102B42D0D8E00120FFF7C0FB48
:1009CC000346012B0BD16E4B1B6801336C4A136031
:1009DC006B4B1B68632B02DD694B00221A600021F4
:1009EC00012000F0E7F9674800F0ACF90021022083
:1009FC0000F0E0F9644800F0A5F9614B1B681A4659
:100A0C000C21022000F0BAF90220FFF799FB0346F3
:100A1C00012B40F0AD800021002000F057FD00219B
:100A2C00002000F06DFD0021002000F085FD00216C
:100A3C00002000F09DFD514B0D221A6098E0012022
:100A4C00FFF77EFB0346012B0BD1504B1B68013388
:100A5C004E4A13604D4B1B68632B02DD4B4B00223F
:100A6C001A600021012000F0A5F9494800F06AF94C
:100A7C000021022000F09EF9464800F063F9434B38
:100A8C001B681A460D21022000F078F90220FFF7AE
:100A9C0057FB0346012B6DD10021002000F016FD01
:100AAC000021002000F02CFD0021002000F044FD6E
:100ABC000021002000F05CFD304B0E221A6059E042
:100ACC000220FFF73DFB0346012B27D1002100201C
:100ADC0000F0FCFC0021002000F012FD00210020A1
:100AEC0000F02AFD0021002000F042FD274B1A687F
:100AFC00294B1B681A44224B1B689A4203D01F4B8C
:100B0C000F221A600AE000F071F86421012000F055
:100B1C0059FC00F02CF9194B02221A600120FFF746
:100B2C000FFB0346012B0BD11B4B1B6801331A4ADD
:100B3C001360194B1B68632B02DD174B00221A60E4
:100B4C000021012000F036F9144800F0FBF80021D8
:100B5C00022000F02FF9124800F0F4F80E4B1B683D
:100B6C001A460E21022000F009F904E000BF02E051
:100B7C0000BF00E000BF00BF80BD00BFD800002058
:100B8C00E8000020A0410008B0410008F00000205F
:100B9C00BC410008CC410008EC000020DC410008FE
:100BAC00EC41000880B400AF0A4B05221A600A4BD6
:100BBC0003221A60094B02221A60094B05221A60A3
:100BCC00084B02221A60084B03221A6000BFBD4674
:100BDC0080BC7047DC000020E0000020E400002016
:100BEC00E8000020EC000020F000002080B400AFF2
:100BFC00074B1B68074A1360074B1B68074A1360B7
:100C0C00074B1B68074A136000BFBD4680BC70478A
:100C1C00E8000020DC000020F0000020E0000020B4
:100C2C00EC000020E400002080B586B002AF034643
:100C3C00FB71FB7923F00F03FB73FB791B01BB7377
:100C4C00FB7B43F00C03DBB23B72FB7B43F00803F2
:100C5C00DBB27B72BB7B43F00C03DBB2BB72BB7BA6
:100C6C0043F00803DBB2FB7207F108026423009324
:100C7C0004234221034801F06BF900BF1037BD4635
:100C8C0080BD00BFF400002080B586B002AF0346E3
:100C9C00FB71FB7923F00F03FB73FB791B01BB7317
:100CAC00FB7B43F00D03DBB23B72FB7B43F0090390
:100CBC00DBB27B72BB7B43F00D03DBB2BB72BB7B45
:100CCC0043F00903DBB2FB7207F1080264230093C3
:100CDC0004234221034801F03BF900BF1037BD4605
:100CEC0080BD00BFF400002080B500AF3320FFF7BB
:100CFC009BFF3220FFF798FF322000F0DDFC28200C
:100D0C00FFF792FF322000F0D7FC0120FFF78CFF99
:100D1C00322000F0D1FC0620FFF786FF322000F0D5
:100D2C00CBFC0C20FFF780FF322000F0C5FC02202A
:100D3C00FFF77AFF322000F0BFFC8020FFF774FF32
:100D4C0000BF80BD80B582B000AF786006E07B68E4
:100D5C005A1C7A601B781846FFF796FF7B681B7845
:100D6C00002BF4D100BF00BF0837BD4680BD80B555
:100D7C0000AF0120FFF758FF00BF80BD80B588B0E1
:100D8C0000AFF860B9607A6007F110037A6808491F
:100D9C00184602F015FDB968F86800F00BF807F179
:100DAC0010031846FFF7CEFF00BF2037BD4680BDAD
:100DBC00FC41000880B584B000AF786039607B6876
:100DCC00012B08D17B68DAB23B68DBB21344DBB28F
:100DDC007F33FB7308E03B68DBB24033DBB25BB2C2
:100DEC0063F07F035BB2FB73FB7B1846FFF71CFFC2
:100DFC0000BF1037BD4680BD80B500AF00F0FAFBD8
:100E0C0000F020F800F004F900F0D8F800F05CF8DD
:100E1C0000F088F8094802F053F8FFF7C3FEFFF71B
:100E2C0063FFFFF7A4FF064B01221A60FFF7D0FA0D
:100E3C00FFF790FCFFF7B2FD00BFF7E74801002079
:100E4C00D800002080B590B000AF07F1180328221D
:100E5C000021184602F0D4FC3B1D00221A605A6097
:100E6C009A60DA601A610223BB610123BB62102312
:100E7C00FB6202237B630023BB634FF46013FB63B1
:100E8C0007F11803184601F0BBFB0346002B01D0F9
:100E9C0000F070F90F237B600223BB600023FB6022
:100EAC004FF480633B6100237B613B1D022118469C
:100EBC0001F028FE0346002B01D000F05BF900BFC7
:100ECC004037BD4680BD000080B500AF124B134AC1
:100EDC001A60114B124A5A600F4B00229A600E4B4B
:100EEC000022DA600C4B4FF480421A610A4B00224C
:100EFC005A61094B00229A61074B0022DA61064BBA
:100F0C0000221A62044800F0DFFE0346002B01D0D9
:100F1C0000F030F900BF80BDF40000200054004008
:100F2C00A086010080B586B000AF07F1080300224F
:100F3C001A605A609A60DA603B4600221A605A6066
:100F4C001D4B4FF080421A601B4B41F63F725A60AA
:100F5C00194B00229A60184B0922DA60164B0022BA
:100F6C001A61154B00229A61134801F059FF034690
:100F7C00002B01D000F0FEF84FF48053BB6007F15A
:100F8C00080319460C4802F0DDF80346002B01D08B
:100F9C0000F0F0F800233B6000237B603B461946D1
:100FAC00054802F0BFFA0346002B01D000F0E2F82E
:100FBC0000BF1837BD4680BD4801002080B500AF8A
:100FCC00114B124A1A60104B4FF4E1325A600E4B1F
:100FDC0000229A600C4B0022DA600B4B00221A6143
:100FEC00094B0C225A61084B00229A61064B0022D5
:100FFC00DA61054802F006FB0346002B01D000F035
:10100C00B9F800BF80BD00BF900100200044004033
:10101C0080B588B000AF07F1100300221A605A6047
:10102C009A60DA60484B9B69474A43F0100393611E
:10103C00454B9B6903F01003FB60FB68424B9B69BB
:10104C00414A43F0200393613F4B9B6903F020031B
:10105C00BB60BB683C4B9B693B4A43F00403936108
:10106C00394B9B6903F004037B607B68364B9B69AF
:10107C00354A43F008039361334B9B6903F0080333
:10108C003B603B6800224FF44C71304800F0E1FDAE
:10109C0000224FF48F612E4800F0DBFD00228021EE
:1010AC002C4800F0D6FD4FF400533B612A4B7B617A
:1010BC000023BB6107F110031946264800F02EFCF3
:1010CC0003233B6100237B610023BB6107F1100309
:1010DC0019461E4800F022FC4FF44C733B6101236F
:1010EC007B610023BB610223FB6107F110031946EE
:1010FC00164800F013FC4FF48F633B6101237B61B6
:10110C000023BB610223FB6107F110031946104851
:10111C0000F004FC80233B6101237B610023BB6155
:10112C000223FB6107F1100319460A4800F0F6FB95
:10113C0000220021282000F0BAFB282000F0D3FB6D
:10114C0000BF2037BD4680BD0010024000080140A2
:10115C00000C0140001001400000111080B582B05D
:10116C0000AF7860FFF716F800F044F900BF0837BD
:10117C00BD4680BD80B400AF72B600BF00BFFDE7B6
:10118C0080B485B000AF154B9B69144A43F0010342
:10119C009361124B9B6903F00103BB60BB680F4B5F
:1011AC00DB690E4A43F08053D3610C4BDB6903F0CF
:1011BC0080537B607B680A4B5B68FB60FB6823F0A9
:1011CC00E063FB60FB6843F00073FB60044AFB6860
:1011DC00536000BF1437BD4680BC704700100240FE
:1011EC000000014080B58AB000AF786007F11403AD
:1011FC0000221A605A609A60DA607B681B681D4A8C
:10120C00934232D11C4B9B691B4A43F008039361F8
:10121C00194B9B6903F008033B613B694FF4407326
:10122C007B611223BB6103233B6207F11403194654
:10123C00124800F073FB124B5B687B627B6A43F0D5
:10124C00E0637B627B6A43F002037B620C4A7B6A3D
:10125C005360094BDB69084A43F40013D361064B16
:10126C00DB6903F40013FB60FB6800BF2837BD4645
:10127C0080BD00BF0054004000100240000C014033
:10128C000000014080B584B000AF78607B681B68BB
:10129C00B3F1804F13D10C4BDB690B4A43F00103C4
:1012AC00D361094BDB6903F00103FB60FB6800228F
:1012BC0000211C2000F0FBFA1C2000F014FB00BFE6
:1012CC001037BD4680BD00BF0010024080B588B00D
:1012DC0000AF786007F1100300221A605A609A6020
:1012EC00DA607B681B68154A934223D1144BDB6987
:1012FC00134A43F40033D361114BDB6903F400331D
:10130C00FB60FB680E4B9B690D4A43F00403936131
:10131C000B4B9B6903F00403BB60BB680C233B6164
:10132C0002237B610223FB6107F110031946054878
:10133C0000F0F4FA00BF2037BD4680BD00440040E9
:10134C00001002400008014080B400AF00BFFDE770
:10135C0080B400AF00BFFDE780B400AF00BFFDE775
:10136C0080B400AF00BFFDE780B400AF00BFFDE765
:10137C0080B400AF00BFBD4680BC704780B400AFE6
:10138C0000BFBD4680BC704780B400AF00BFBD46F7
:10139C0080BC704780B500AF00F072F900BF80BD13
:1013AC0080B500AF024801F0DDFD00BF80BD00BF7D
:1013BC004801002080B500AF4FF4005000F062FCF3
:1013CC0000BF80BD80B483B000AF78603960074A3D
:1013DC007B68002142F8231005497B683A6841F884
:1013EC00232000BF0C37BD4680BC7047D8010020BD
:1013FC000002002080B483B000AF00237B601CE0AF
:10140C00124A7B6852F82330002B13DD0F4A7B689D
:10141C0052F823305A1E0D497B6841F823200B4AA1
:10142C007B6852F82330002B04DC094A7B680121CD
:10143C0042F823107B6801337B607B68092BDFDD6E
:10144C0000BF00BF0C37BD4680BC704700020020B7
:10145C00D801002080B586B000AF7860144A154BD7
:10146C00D31A7B617B693B61134B1B68002B02D148
:10147C00114B124A1A60104B1A687B6813443A6974
:10148C009A4207D202F0C4F903460C221A604FF0BC
:10149C00FF3309E0084B1B68FB60074B1A687B683D
:1014AC001344054A1360FB6818461837BD4680BDC7
:1014BC0000500020000400002802002078030020C7
:1014CC0080B400AF00BFBD4680BC704780B582B011
:1014DC0000AF03460A46FB711346BB71FB791A46F3
:1014EC000821064800F0B5FBBB791A4620210348B9
:1014FC0000F0AFFB00BF0837BD4680BD000C0140BB
:10150C0080B582B000AF03460A46FB711346BB712F
:10151C00FB791A461021074800F09BFBBB791A4651
:10152C004FF48061034800F094FB00BF0837BD46C0
:10153C0080BD00BF000C014080B582B000AF0346F7
:10154C000A46FB711346BB71FB791A464FF4807146
:10155C00064800F07EFBBB791A464FF40071034835
:10156C0000F077FB00BF0837BD4680BD0008014086
:10157C0080B582B000AF03460A46FB711346BB71BF
:10158C00FB791A468021064800F063FBBB791A46AA
:10159C004021044800F05DFB00BF0837BD4680BD0C
:1015AC0000100140000C0140FFF78AFF0B480C496A
:1015BC000C4A002302E0D458C4500433C4188C42A3
:1015CC00F9D3094A094C002301E013600432A2420A
:1015DC00FBD302F023F9FFF70FFC7047000000204B
:1015EC008C000020684200088C000020780300204A
:1015FC00FEE7000080B500AF084B1B68074A43F0BC
:10160C0010031360032000F047F9002000F008F8E5
:10161C00FFF7B6FD0023184680BD00BF0020024036
:10162C0080B582B000AF7860124B1A68124B1B78F1
:10163C0019464FF47A73B3FBF1F3B2FBF3F318468C
:10164C0000F05FF90346002B01D001230EE07B680C
:10165C000F2B0AD8002279684FF0FF3000F027F9E1
:10166C00064A7B681360002300E001231846083704
:10167C00BD4680BD30000020380000203400002022
:10168C0080B400AF054B1B781A46054B1B681344FE
:10169C00034A136000BFBD4680BC70473800002071
:1016AC002C02002080B400AF024B1B681846BD46CC
:1016BC0080BC70472C02002080B584B000AF7860ED
:1016CC00FFF7F0FFB8607B68FB60FB68B3F1FF3F8E
:1016DC0005D00A4B1B781A46FB681344FB6000BF0D
:1016EC00FFF7E0FF0246BB68D31AFA689A42F7D8B4
:1016FC0000BF00BF1037BD4680BD00BF38000020C2
:10170C0080B485B000AF78607B6803F00703FB60A2
:10171C000C4BDB68BB60BA684FF6FF031340BB6031
:10172C00FB681A02BB68134343F0BF6343F40033F6
:10173C00BB60044ABB68D36000BF1437BD4680BC95
:10174C00704700BF00ED00E080B400AF044BDB68D5
:10175C001B0A03F007031846BD4680BC704700BF48
:10176C0000ED00E080B483B000AF0346FB7197F945
:10177C000730002B0BDBFB7903F01F02064997F9AE
:10178C0007305B09012000FA02F241F8232000BF68
:10179C000C37BD4680BC704700E100E080B483B0DC
:1017AC0000AF03463960FB7197F90730002B0ADB59
:1017BC003B68DAB20C4997F907301201D2B20B44EC
:1017CC0083F800230AE03B68DAB20849FB7903F09E
:1017DC000F03043B1201D2B20B441A7600BF0C3734
:1017EC00BD4680BC704700BF00E100E000ED00E0AA
:1017FC0080B489B000AFF860B9607A60FB6803F020
:10180C000703FB61FB69C3F10703042B28BF042307
:10181C00BB61FB690433062B02D9FB69033B00E077
:10182C0000237B614FF0FF32BB6902FA03F3DA430A
:10183C00BB681A407B699A404FF0FF317B6901FA13
:10184C0003F3D9437B680B40134318462437BD463A
:10185C0080BC704780B582B000AF78607B68013B7C
:10186C00B3F1807F01D301230FE00A4A7B68013B6F
:10187C0053600F214FF0FF30FFF790FF054B002214
:10188C009A60044B07221A60002318460837BD469D
:10189C0080BD00BF10E000E080B582B000AF786082
:1018AC007868FFF72DFF00BF0837BD4680BD80B5B7
:1018BC0086B000AF0346B9607A60FB7300237B618E
:1018CC00FFF742FF78617A68B9687869FFF790FF93
:1018DC00024697F90F3011461846FFF75FFF00BF1D
:1018EC001837BD4680BD80B582B000AF0346FB7192
:1018FC0097F907301846FFF735FF00BF0837BD468C
:10190C0080BD80B582B000AF78607868FFF7A2FF29
:10191C00034618460837BD4680BD000080B48BB026
:10192C0000AF7860396000237B6200233B6269E181
:10193C0001227B6A02FA03F3FB613B681B68FA69BC
:10194C001340BB61BA69FB699A4240F058813B680D
:10195C005B689A4A93425ED0984A934275D8984AEB
:10196C00934258D0964A93426FD8964A934252D09B
:10197C00944A934269D8944A93424CD0924A9342E7
:10198C0063D8924A934246D0904A93425DD8122B28
:10199C002AD8122B59D801A252F823F0231A000886
:1019AC00FD1900080F1A0008511A0008571A0008F0
:1019BC00571A0008571A0008571A0008571A000837
:1019CC00571A0008571A0008571A0008571A000827
:1019DC00571A0008571A0008571A0008571A000817
:1019EC00051A0008191A0008794A934213D02CE002
:1019FC003B68DB683B6229E03B68DB6804333B6295
:101A0C0024E03B68DB6808333B621FE03B68DB6823
:101A1C000C333B621AE03B689B68002B02D1042319
:101A2C003B6213E03B689B68012B05D108233B62AA
:101A3C007B68FA691A6109E008233B627B68FA69E2
:101A4C005A6103E000233B6200E000BFBB69FF2B3F
:101A5C0001D87B6801E07B6804337B61BB69FF2B99
:101A6C0002D87B6A9B0002E07B6A083B9B003B61CF
:101A7C007B691A680F213B6901FA03F3DB431A40B7
:101A8C00396A3B6901FA03F31A437B691A603B68B4
:101A9C005B6803F08053002B00F0B1804D4B9B69C9
:101AAC004C4A43F0010393614A4B9B6903F00103D9
:101ABC00BB60BB68484A7B6A9B08023352F82330F0
:101ACC00FB607B6A03F003039B000F2202FA03F313
:101ADC00DB43FA681340FB607B68404A934213D0A7
:101AEC007B683F4A93420DD07B683E4A934207D0B5
:101AFC007B683D4A934201D1032306E0042304E0B2
:101B0C00022302E0012300E000237A6A02F00302C0
:101B1C0092009340FA681343FB602F497B6A9B0841
:101B2C000233FA6841F823203B685B6803F48013A6
:101B3C00002B06D02D4B9A682C49BB6913438B6044
:101B4C0006E02A4B9A68BB69DB43284913408B603B
:101B5C003B685B6803F40013002B06D0234BDA6858
:101B6C002249BB691343CB6006E0204BDA68BB69A2
:101B7C00DB431E491340CB603B685B6803F40033C6
:101B8C00002B06D0194B5A681849BB6913434B609C
:101B9C0006E0164B5A68BB69DB43144913404B6093
:101BAC003B685B6803F48033002B21D00F4B1A6821
:101BBC000E49BB6913430B6021E000BF00003210DB
:101BCC000000311000002210000021100000121043
:101BDC0000001110001002400000014000080140FC
:101BEC00000C0140001001400014014000040140B1
:101BFC000B4B1A68BB69DB43094913400B607B6ACA
:101C0C0001337B623B681A687B6A22FA03F3002B70
:101C1C007FF48EAE00BF00BF2C37BD4680BC704732
:101C2C000004014080B485B000AF78600B467B8027
:101C3C007B689A687B881340002B02D00123FB73CE
:101C4C0001E00023FB73FB7B18461437BD4680BCB8
:101C5C00704780B483B000AF78600B467B8013462E
:101C6C007B707B78002B03D07A887B681A6103E049
:101C7C007B881A047B681A6100BF0C37BD4680BC98
:101C8C007047000080B582B000AF0346FB80084B64
:101C9C005A69FB881340002B06D0054AFB88536118
:101CAC00FB88184600F006F800BF0837BD4680BD1B
:101CBC000004014080B483B000AF0346FB8000BF3A
:101CCC000C37BD4680BC704780B584B000AF7860DF
:101CDC007B68002B01D101232BE17B6893F83D300D
:101CEC00DBB2002B06D17B68002283F83C2078689D
:101CFC00FFF778FA7B68242283F83D207B681B6809
:101D0C001A687B681B6822F001021A607B681B68EA
:101D1C001A687B681B6842F400421A607B681B6877
:101D2C001A687B681B6822F400421A6001F032F8D2
:101D3C00F8607B685B68814A934207D8FB68804AED
:101D4C00934294BF01230023DBB206E0FB687D4A7B
:101D5C00934294BF01230023DBB2002B01D001235B
:101D6C00E7E0FB68784AA2FB03239B0CBB607B6813
:101D7C001B685B6823F03F017B681B68BA680A43E9
:101D8C005A607B681B681B6A23F03F017B685B68A9
:101D9C006A4A934202D8BB68013309E0BB684FF42E
:101DAC00967202FB03F3694AA2FB03239B090133DE
:101DBC007A6812680B4313627B681B68DB6923F437
:101DCC004F4222F0FF027B685B685C498B4219D85A
:101DDC00FB68591E7B685B685B00B1FBF3F3591C15
:101DEC0040F6FC730B40002B0AD0FB68591E7B6835
:101DFC005B685B00B1FBF3F30133C3F30B0351E0FE
:101E0C0004234FE07B689B68002B11D1FB68581EA4
:101E1C007B6859680B465B000B44B0FBF3F3013352
:101E2C00C3F30B03002B0CBF01230023DBB212E026
:101E3C00FB68581E7B6859680B469B000B44990045
:101E4C000B44B0FBF3F30133C3F30B03002B0CBFB8
:101E5C0001230023DBB2002B01D0012322E07B689D
:101E6C009B68002B0ED1FB68581E7B6859680B468B
:101E7C005B000B44B0FBF3F30133C3F30B0343F4EC
:101E8C0000430FE0FB68581E7B6859680B469B00AB
:101E9C000B4499000B44B0FBF3F30133C3F30B0376
:101EAC0043F44043796809681343CB617B681B6832
:101EBC001B6823F0C0017B68DA697B681B6A1A43D4
:101ECC007B681B680A431A607B681B689B6823F459
:101EDC00034323F0FF037A6811697A68D2681143CF
:101EEC007A6812680B4393607B681B68DB6823F08D
:101EFC00FF017B685A697B689B691A437B681B6886
:101F0C000A43DA607B681B681A687B681B6842F0BE
:101F1C0001021A607B6800221A647B68202283F815
:101F2C003D207B6800221A637B68002283F83E20E8
:101F3C00002318461037BD4680BD00BFA0860100A7
:101F4C007F841E00FF083D0083DE1B43D34D6210CF
:101F5C0080B588B002AFF8607A601A460B467B8178
:101F6C0013463B81FFF79EFB7861FB6893F83D308D
:101F7C00DBB2202B40F0E0807B6900931923012217
:101F8C007049F86800F064F90346002B01D0022375
:101F9C00D3E0FB6893F83C30012B01D10223CCE059
:101FAC00FB68012283F83C20FB681B681B6803F06C
:101FBC000103012B07D0FB681B681A68FB681B68C0
:101FCC0042F001021A60FB681B681A68FB681B6808
:101FDC0022F400621A60FB68212283F83D20FB6822
:101FEC00102283F83E20FB6800221A64FB687A6892
:101FFC005A62FB683A895A85FB685B8D9AB2FB681A
:10200C001A85FB68504ADA6279897B693A6AF86802
:10201C0000F09CF80346002B01D001238DE0002337
:10202C003B61FB681B685B693B61FB681B689B69D8
:10203C003B613B6966E07A69396AF86800F022FA1C
:10204C000346002B0DD0FB681B6C042B07D1FB68DF
:10205C001B681A68FB681B6842F400721A60012343
:10206C006BE0FB685B6A1A78FB681B681A61FB689B
:10207C005B6A5A1CFB685A62FB685B8D9BB2013B26
:10208C009AB2FB685A85FB681B8D013B9AB2FB68C0
:10209C001A85FB681B685B6903F00403042B1BD1D6
:1020AC00FB681B8D002B17D0FB685B6A1A78FB68EA
:1020BC001B681A61FB685B6A5A1CFB685A62FB68F6
:1020CC005B8D9BB2013B9AB2FB685A85FB681B8DFA
:1020DC00013B9AB2FB681A857A69396AF86800F094
:1020EC0019FA0346002B0DD0FB681B6C042B07D18F
:1020FC00FB681B681A68FB681B6842F400721A6064
:10210C0001231AE0FB681B8D002B94D1FB681B6824
:10211C001A68FB681B6842F400721A60FB68202284
:10212C0083F83D20FB68002283F83E20FB680022E8
:10213C0083F83C20002300E0022318461837BD46E4
:10214C0080BD00BF020010000000FFFF80B588B00A
:10215C0002AFF8607A603B600B467B81FB68DB6A00
:10216C007B617B69082B06D07B69012B03D07B69D3
:10217C0013F5803F08D1FB681B681A68FB681B6865
:10218C0042F480721A600BE0FB681B6B122B07D1B8
:10219C00FB681B681A68FB681B6842F480721A6043
:1021AC003B6800937B6800224FF00111F86800F047
:1021BC004FF80346002B0DD0FB681B681B6803F41B
:1021CC008073B3F5807F03D1FB684FF400721A64FF
:1021DC00032335E0FB681B69B3F5804F08D17B897D
:1021EC00DBB21A46FB681B6802F0FE021A611BE0A8
:1021FC007B89DB11DBB203F00603DBB263F00F0368
:10220C00DAB2FB681B681A613B687A680E49F86899
:10221C0000F098F80346002B01D0012310E07B89D5
:10222C00DAB2FB681B681A613B687A680749F86880
:10223C0000F088F80346002B01D0012300E00023B6
:10224C0018461837BD4680BD080001000200010089
:10225C0080B584B000AFF860B9603B601346FB7189
:10226C0048E03B68B3F1FF3F44D0FFF71BFA02464E
:10227C00BB69D31A3A689A4202D33B68002B39D116
:10228C00BB681B0CDBB2012B0DD1FB681B685B69B7
:10229C00DA43BB6813409BB2002B0CBF0123002315
:1022AC00DBB21A460CE0FB681B689B69DA43BB681F
:1022BC0013409BB2002B0CBF01230023DBB21A4648
:1022CC00FB799A4216D1FB6800221A63FB68202224
:1022DC0083F83D20FB68002283F83E20FB681B6CD2
:1022EC0043F02002FB681A64FB68002283F83C2050
:1022FC00012323E0BB681B0CDBB2012B0DD1FB6867
:10230C001B685B69DA43BB6813409BB2002B0CBFA4
:10231C0001230023DBB21A460CE0FB681B689B69A7
:10232C00DA43BB6813409BB2002B0CBF0123002384
:10233C00DBB21A46FB799A4293D000231846103729
:10234C00BD4680BD80B584B000AFF860B9607A60DE
:10235C003B6071E0FB681B685B6903F48063B3F559
:10236C00806F23D1FB681B681A68FB681B6842F4FA
:10237C0000721A60FB681B686FF480625A61FB681C
:10238C0000221A63FB68202283F83D20FB680022A0
:10239C0083F83E20FB681B6C43F00402FB681A6454
:1023AC00FB68002283F83C20012367E07B68B3F1D3
:1023BC00FF3F41D0FFF776F902463B68D31A7A68A3
:1023CC009A4202D37B68002B36D1BB681B0CDBB264
:1023DC00012B0CD1FB681B685B69DA43BB681340AB
:1023EC009BB2002B14BF01230023DBB20BE0FB6874
:1023FC001B689B69DA43BB6813409BB2002B14BF6C
:10240C0001230023DBB2002B16D0FB6800221A63D9
:10241C00FB68202283F83D20FB68002283F83E20D5
:10242C00FB681B6C43F02002FB681A64FB680022FB
:10243C0083F83C20012321E0BB681B0CDBB2012B91
:10244C000CD1FB681B685B69DA43BB6813409BB219
:10245C00002B14BF01230023DBB20BE0FB681B68CD
:10246C009B69DA43BB6813409BB2002B14BF01235A
:10247C000023DBB2002B7FF46DAF0023184610371E
:10248C00BD4680BD80B584B000AFF860B9607A609D
:10249C0034E0F86800F086F80346002B01D00123E5
:1024AC0034E0BB68B3F1FF3F28D0FFF7FBF80246DE
:1024BC007B68D31ABA689A4202D3BB68002B1DD131
:1024CC00FB681B685B6903F08003802B16D0FB68EC
:1024DC0000221A63FB68202283F83D20FB6800224F
:1024EC0083F83E20FB681B6C43F02002FB681A64E7
:1024FC00FB68002283F83C20012307E0FB681B6883
:10250C005B6903F08003802BC3D10023184610377E
:10251C00BD4680BD80B584B000AFF860B9607A600C
:10252C0034E0F86800F03EF80346002B01D001239C
:10253C0034E0BB68B3F1FF3F28D0FFF7B3F8024695
:10254C007B68D31ABA689A4202D3BB68002B1DD1A0
:10255C00FB681B685B6903F00403042B16D0FB6853
:10256C0000221A63FB68202283F83D20FB680022BE
:10257C0083F83E20FB681B6C43F02002FB681A6456
:10258C00FB68002283F83C20012307E0FB681B68F2
:10259C005B6903F00403042BC3D1002318461037E6
:1025AC00BD4680BD80B483B000AF78607B681B688B
:1025BC005B6903F48063B3F5806F1BD17B681B6888
:1025CC006FF480625A617B6800221A637B68202258
:1025DC0083F83D207B68002283F83E207B681B6CCF
:1025EC0043F004027B681A647B68002283F83C2069
:1025FC00012300E0002318460C37BD4680BC704711
:10260C0080B586B000AF78607B68002B01D10123C8
:10261C0072E27B681B6803F00103002B00F08780DB
:10262C00924B5B6803F00C03042B0CD08F4B5B6854
:10263C0003F00C03082B12D18C4B5B6803F4803332
:10264C00B3F5803F0BD1894B1B6803F40033002B8F
:10265C006CD07B685B68002B68D101234CE27B68F3
:10266C005B68B3F5803F06D1804B1B687F4A43F40F
:10267C00803313602EE07B685B68002B0CD17B4BA6
:10268C001B687A4A23F480331360784B1B68774AB3
:10269C0023F4802313601DE07B685B68B3F5A02FE7
:1026AC000CD1724B1B68714A43F4802313606F4B3F
:1026BC001B686E4A43F4803313600BE06B4B1B6852
:1026CC006A4A23F480331360684B1B68674A23F40F
:1026DC00802313607B685B68002B13D0FEF7E2FF4E
:1026EC00386108E0FEF7DEFF02463B69D31A642B23
:1026FC0001D9032300E25D4B1B6803F40033002B6C
:10270C00F0D014E0FEF7CEFF386108E0FEF7CAFF08
:10271C0002463B69D31A642B01D90323ECE1534BDA
:10272C001B6803F40033002BF0D100E000BF7B6882
:10273C001B6803F00203002B63D04C4B5B6803F067
:10274C000C03002B0BD0494B5B6803F00C03082BDC
:10275C001CD1464B5B6803F48033002B16D1434BE2
:10276C001B6803F00203002B05D07B681B69012B4F
:10277C0001D00123C0E13D4B1B6823F0F8027B68BC
:10278C005B69DB00394913430B603AE07B681B69DA
:10279C00002B20D0364B01221A60FEF783FF3861E4
:1027AC0008E0FEF77FFF02463B69D31A022B01D9E2
:1027BC000323A1E12D4B1B6803F00203002BF0D087
:1027CC002A4B1B6823F0F8027B685B69DB00274906
:1027DC0013430B6015E0264B00221A60FEF762FFD4
:1027EC00386108E0FEF75EFF02463B69D31A022B04
:1027FC0001D9032380E11D4B1B6803F00203002B5E
:10280C00F0D17B681B6803F00803002B3AD07B687F
:10281C009B69002B19D0174B01221A60FEF742FF5F
:10282C00386108E0FEF73EFF02463B69D31A022BE3
:10283C0001D9032360E10D4B5B6A03F00203002B0B
:10284C00F0D0012000F0CEFA1CE00A4B00221A60F6
:10285C00FEF728FF38610FE0FEF724FF02463B69C4
:10286C00D31A022B08D9032346E100BF0010024003
:10287C000000424280044242924B5B6A03F0020326
:10288C00002BE9D17B681B6803F00403002B00F0DC
:10289C00A6800023FB758B4BDB6903F08053002B68
:1028AC000DD1884BDB69874A43F08053D361854B4C
:1028BC00DB6903F08053BB60BB680123FB75824B63
:1028CC001B6803F48073002B18D17F4B1B687E4A66
:1028DC0043F480731360FEF7E5FE386108E0FEF701
:1028EC00E1FE02463B69D31A642B01D9032303E1B1
:1028FC00754B1B6803F48073002BF0D07B68DB688E
:10290C00012B06D16F4B1B6A6E4A43F00103136215
:10291C002DE07B68DB68002B0CD16A4B1B6A694A83
:10292C0023F001031362674B1B6A664A23F004030E
:10293C0013621CE07B68DB68052B0CD1614B1B6AB6
:10294C00604A43F0040313625E4B1B6A5D4A43F01A
:10295C00010313620BE05B4B1B6A5A4A23F0010321
:10296C001362584B1B6A574A23F0040313627B68AB
:10297C00DB68002B15D0FEF795FE38610AE0FEF7F8
:10298C0091FE02463B69D31A41F28832934201D937
:10299C000323B1E04B4B1B6A03F00203002BEED078
:1029AC0014E0FEF77FFE38610AE0FEF77BFE02467C
:1029BC003B69D31A41F28832934201D903239BE03D
:1029CC00404B1B6A03F00203002BEED1FB7D012B65
:1029DC0005D13C4BDB693B4A23F08053D3617B68C8
:1029EC00DB69002B00F08780364B5B6803F00C032F
:1029FC00082B61D07B68DB69022B46D1334B00225C
:102A0C001A60FEF74FFE386108E0FEF74BFE0246F7
:102A1C003B69D31A022B01D903236DE0294B1B68A8
:102A2C0003F00073002BF0D17B681B6AB3F5803F79
:102A3C0008D1244B5B6823F400327B689B682149E6
:102A4C0013434B601F4B5B6823F474127B68196A49
:102A5C007B685B6A0B431B4913434B601B4B012286
:102A6C001A60FEF71FFE386108E0FEF71BFE0246F7
:102A7C003B69D31A022B01D903233DE0114B1B6890
:102A8C0003F00073002BF0D035E0104B00221A60DD
:102A9C00FEF708FE386108E0FEF704FE02463B69CB
:102AAC00D31A022B01D9032326E0064B1B6803F033
:102ABC000073002BF0D11EE07B68DB69012B07D182
:102ACC00012319E0001002400070004060004242F7
:102ADC000B4B5B68FB60FB6803F480327B681B6A02
:102AEC009A4206D1FB6803F470127B685B6A9A42C7
:102AFC0001D0012300E0002318461837BD4680BDE5
:102B0C000010024080B584B000AF786039607B68FB
:102B1C00002B01D10123D0E06A4B1B6803F00703A3
:102B2C003A689A4210D9674B1B6823F00702654933
:102B3C003B6813430B60634B1B6803F007033A6855
:102B4C009A4201D00123B8E07B681B6803F00203B2
:102B5C00002B20D07B681B6803F00403002B05D0EE
:102B6C00594B5B68584A43F4E06353607B681B68BD
:102B7C0003F00803002B05D0534B5B68524A43F417
:102B8C0060535360504B5B6823F0F0027B689B688A
:102B9C004D4913434B607B681B6803F00103002B0A
:102BAC0040D07B685B68012B07D1474B1B6803F453
:102BBC000033002B15D101237FE07B685B68022B6F
:102BCC0007D1414B1B6803F00073002B09D1012383
:102BDC0073E03D4B1B6803F00203002B01D1012372
:102BEC006BE0394B5B6823F003027B685B6836490A
:102BFC0013434B60FEF756FDF8600AE0FEF752FDFA
:102C0C000246FB68D31A41F28832934201D903235E
:102C1C0053E02D4B5B6803F00C027B685B689B00F8
:102C2C009A42EBD1274B1B6803F007033A689A4290
:102C3C0010D2244B1B6823F0070222493B68134334
:102C4C000B60204B1B6803F007033A689A4201D0D3
:102C5C00012332E07B681B6803F00403002B08D0CF
:102C6C00194B5B6823F4E0627B68DB6816491343FD
:102C7C004B607B681B6803F00803002B09D0124BD8
:102C8C005B6823F460527B681B69DB000E491343BD
:102C9C004B6000F021F802460B4B5B681B0903F0FC
:102CAC000F030A49CB5C22FA03F3094A1360094B60
:102CBC001B681846FEF7B4FC002318461037BD46B7
:102CCC0080BD00BF002002400010024000420008FE
:102CDC00300000203400002080B487B000AF002307
:102CEC00FB600023BB6000237B6100237B6000231F
:102CFC003B611E4B5B68FB60FB6803F00C03042B11
:102D0C0002D0082B03D027E0194B3B6127E0FB686E
:102D1C009B0C03F00F03174AD35C7B60FB6803F436
:102D2C008033002B10D0114B5B685B0C03F001035C
:102D3C00114AD35CBB607B680D4A03FB02F2BB6893
:102D4C00B2FBF3F37B6104E07B680C4A02FB03F3F8
:102D5C007B617B693B6102E0054B3B6100BF3B69DA
:102D6C0018461C37BD4680BC704700BF001002409F
:102D7C0000127A00184200082842000800093D00A1
:102D8C0080B400AF024B1B681846BD4680BC704730
:102D9C003000002080B500AFFFF7F2FF0246054B74
:102DAC005B681B0A03F007030349CB5C22FA03F3AD
:102DBC00184680BD001002401042000880B500AFDC
:102DCC00FFF7DEFF0246054B5B68DB0A03F00703E7
:102DDC000349CB5C22FA03F3184680BD0010024075
:102DEC001042000880B485B000AF78600A4B1B68B5
:102DFC000A4AA2FB03235B0A7A6802FB03F3FB601B
:102E0C0000BFFB685A1EFA60002BF9D100BF00BF4F
:102E1C001437BD4680BC704730000020D34D621083
:102E2C0080B582B000AF78607B68002B01D10123A4
:102E3C0041E07B6893F83D30DBB2002B06D17B6818
:102E4C00002283F83C207868FEF71CFA7B6802228B
:102E5C0083F83D207B681A687B680433194610465A
:102E6C0000F05CFA7B68012283F846207B68012223
:102E7C0083F83E207B68012283F83F207B68012287
:102E8C0083F840207B68012283F841207B68012273
:102E9C0083F842207B68012283F843207B6801225F
:102EAC0083F844207B68012283F845207B6801224B
:102EBC0083F83D20002318460837BD4680BD00002E
:102ECC0080B485B000AF78607B6893F83D30DBB29E
:102EDC00012B01D001233AE07B68022283F83D20CC
:102EEC007B681B68DA687B681B6842F00102DA6059
:102EFC007B681B68184A93420ED07B681B68B3F141
:102F0C00804F09D07B681B68144A934204D07B68BD
:102F1C001B68134A934211D17B681B689B6803F0B2
:102F2C000703FB60FB68062B10D07B681B681A68D4
:102F3C007B681B6842F001021A6007E07B681B6823
:102F4C001A687B681B6842F001021A60002318465D
:102F5C001437BD4680BC7047002C01400004004073
:102F6C000008004080B584B000AF78607B681B68B7
:102F7C00DB68FB607B681B681B69BB60BB6803F08C
:102F8C000203002B20D0FB6803F00203002B1BD0A4
:102F9C007B681B686FF002021A617B6801221A774A
:102FAC007B681B689B6903F00303002B03D07868D4
:102FBC0000F098F905E0786800F08BF9786800F07B
:102FCC009AF97B6800221A77BB6803F00403002B84
:102FDC0020D0FB6803F00403002B1BD07B681B681C
:102FEC006FF004021A617B6802221A777B681B68F7
:102FFC009B6903F44073002B03D0786800F072F9DE
:10300C0005E0786800F065F9786800F074F97B6881
:10301C0000221A77BB6803F00803002B20D0FB6852
:10302C0003F00803002B1BD07B681B686FF00802B1
:10303C001A617B6804221A777B681B68DB6903F0D2
:10304C000303002B03D0786800F04CF905E0786896
:10305C0000F03FF9786800F04EF97B6800221A778F
:10306C00BB6803F01003002B20D0FB6803F01003A7
:10307C00002B1BD07B681B686FF010021A617B68F9
:10308C0008221A777B681B68DB6903F44073002BFA
:10309C0003D0786800F026F905E0786800F019F99B
:1030AC00786800F028F97B6800221A77BB6803F077
:1030BC000103002B0CD0FB6803F00103002B07D09D
:1030CC007B681B686FF001021A617868FEF746F89E
:1030DC00BB6803F08003002B0CD0FB6803F080036B
:1030EC00002B07D07B681B686FF080021A61786830
:1030FC0000F07FFABB6803F04003002B0CD0FB6898
:10310C0003F04003002B07D07B681B686FF0400274
:10311C001A61786800F0F8F8BB6803F02003002B04
:10312C000CD0FB6803F02003002B07D07B681B68D6
:10313C006FF020021A61786800F052FA00BF103765
:10314C00BD4680BD80B584B000AF78603960002387
:10315C00FB737B6893F83C30012B01D10223B4E064
:10316C007B68012283F83C207B68022283F83D2097
:10317C007B681B689B68BB60BB6823F07703BB60F4
:10318C00BB6823F47F43BB607B681B68BA689A609A
:10319C003B681B68B3F5005F3ED0B3F5005F00F2EF
:1031AC008780B3F5805F00F08680B3F5805F7FD8B1
:1031BC00702B1AD0702B7BD8602B50D0602B77D80B
:1031CC00502B3CD0502B73D8402B58D0402B6FD861
:1031DC00302B64D0302B6BD8202B60D0202B67D8B1
:1031EC00002B5CD0102B5AD062E07B6818683B68CF
:1031FC0099683B685A683B68DB6800F074F97B6837
:10320C001B689B68BB60BB6843F07703BB607B6843
:10321C001B68BA689A604FE07B6818683B689968CD
:10322C003B685A683B68DB6800F05DF97B681B689B
:10323C009A687B681B6842F480429A603CE07B6829
:10324C0018683B6859683B68DB681A4600F0D4F88C
:10325C007B681B685021184600F02BF92CE07B682A
:10326C0018683B6859683B68DB681A4600F0F2F84E
:10327C007B681B686021184600F01BF91CE07B681A
:10328C0018683B6859683B68DB681A4600F0B4F86C
:10329C007B681B684021184600F00BF90CE07B683A
:1032AC001A683B681B681946104600F002F903E0E7
:1032BC000123FB7300E000BF7B68012283F83D20F3
:1032CC007B68002283F83C20FB7B18461037BD46F8
:1032DC0080BD80B483B000AF786000BF0C37BD46B2
:1032EC0080BC704780B483B000AF786000BF0C37EF
:1032FC00BD4680BC704780B483B000AF786000BF1F
:10330C000C37BD4680BC704780B483B000AF78608A
:10331C0000BF0C37BD4680BC7047000080B485B040
:10332C0000AF786039607B681B68FB607B682F4A54
:10333C0093420BD07B68B3F1804F07D07B682C4A4B
:10334C00934203D07B682B4A934208D1FB6823F04D
:10335C007003FB603B685B68FA681343FB607B6837
:10336C00224A93420BD07B68B3F1804F07D07B6825
:10337C001F4A934203D07B681E4A934208D1FB68D4
:10338C0023F44073FB603B68DB68FA681343FB6013
:10339C00FB6823F080023B685B691343FB607B682E
:1033AC00FA681A603B689A687B68DA623B681A684C
:1033BC007B689A627B680D4A934203D13B681A6919
:1033CC007B681A637B6801225A617B681B6903F076
:1033DC000103002B05D07B681B6923F001027B687D
:1033EC001A6100BF1437BD4680BC7047002C0140E9
:1033FC00000400400008004080B487B000AFF860C3
:10340C00B9607A60FB681B6A7B61FB681B6A23F0FE
:10341C000102FB681A62FB689B693B613B6923F004
:10342C00F0033B617B681B013A6913433B617B6989
:10343C0023F00A037B617A69BB6813437B61FB68E9
:10344C003A699A61FB687A691A6200BF1C37BD46FB
:10345C0080BC704780B487B000AFF860B9607A6008
:10346C00FB681B6A7B61FB681B6A23F01002FB681C
:10347C001A62FB689B693B613B6923F470433B61B7
:10348C007B681B033A6913433B617B6923F0A00300
:10349C007B61BB681B017A6913437B61FB683A69EA
:1034AC009A61FB687A691A6200BF1C37BD4680BC02
:1034BC00704780B485B000AF786039607B689B68DA
:1034CC00FB60FB6823F07003FB603A68FB681343F6
:1034DC0043F00703FB607B68FA689A6000BF1437FF
:1034EC00BD4680BC704780B487B000AFF860B9604F
:1034FC007A603B60FB689B687B617B6923F47F434C
:10350C007B613B681A027B681A43BB6813437A6978
:10351C0013437B61FB687A699A6000BF1C37BD4618
:10352C0080BC704780B485B000AF786039607B6830
:10353C0093F83C30012B01D1022346E07B68012239
:10354C0083F83C207B68022283F83D207B681B6853
:10355C005B68FB607B681B689B68BB60FB6823F047
:10356C007003FB603B681B68FA681343FB607B6865
:10357C001B68FA685A607B681B68164A93420ED027
:10358C007B681B68B3F1804F09D07B681B68124ABB
:10359C00934204D07B681B68104A93420CD1BB68E1
:1035AC0023F08003BB603B685B68BA681343BB6065
:1035BC007B681B68BA689A607B68012283F83D209F
:1035CC007B68002283F83C20002318461437BD4644
:1035DC0080BC7047002C01400004004000080040F3
:1035EC0080B483B000AF786000BF0C37BD4680BCA0
:1035FC00704780B483B000AF786000BF0C37BD4615
:10360C0080BC704780B582B000AF78607B68002BBF
:10361C0001D1012342E07B6893F84130DBB2002BEF
:10362C0006D17B68002283F840207868FDF74EFEB7
:10363C007B68242283F841207B681B68DA687B68EE
:10364C001B6822F40052DA60786800F02BF87B6873
:10365C001B681A697B681B6822F490421A617B68AC
:10366C001B685A697B681B6822F02A025A617B68C6
:10367C001B68DA687B681B6842F40052DA607B686E
:10368C0000225A647B68202283F841207B68202228
:10369C0083F842207B6800225A63002318460837BF
:1036AC00BD4680BD80B584B000AF78607B681B6878
:1036BC001B6923F440517B68DA687B681B680A43FA
:1036CC001A617B689A687B681B691A437B685B6923
:1036DC001343BB607B681B68DB6823F4B05323F097
:1036EC000C037A681268B9680B43D3607B681B685B
:1036FC005B6923F440717B689A697B681B680A4399
:10370C005A617B681B682C4A934203D1FFF756FB26
:10371C00F86002E0FFF73EFBF860FA6813469B0086
:10372C0013449A001A447B685B689B00B2FBF3F36A
:10373C00224AA2FB03235B091901FA6813469B007A
:10374C0013449A001A447B685B689B00B2FBF3F24B
:10375C001A4BA3FB02035B09642000FB03F3D31A8F
:10376C001B013233154AA2FB03235B0903F0F00360
:10377C001944FA6813469B0013449A001A447B6858
:10378C005B689B00B2FBF3F20C4BA3FB02035B09DF
:10379C00642000FB03F3D31A1B013233074AA2FB4C
:1037AC0003235B0903F00F027B681B680A449A60D1
:1037BC0000BF1037BD4680BD003801401F85EB515E
:1037CC000EB46FF0004100B59CB01DAB029006909A
:1037DC00079104910848094953F8042B0591006896
:1037EC0002A9019300F092F90022029B1A701CB0FE
:1037FC005DF804EB03B070473C0000200802FFFFAB
:10380C0003460244934200D1704703F8011BF9E7C9
:10381C00014B1868704700BF3C00002070B50026B3
:10382C000C4D0D4C641BA410A64209D100F078FC81
:10383C0000260A4D0A4C641BA410A64205D170BD8B
:10384C0055F8043B98470136EEE755F8043B98478A
:10385C000136F2E76042000860420008604200084E
:10386C00644200087047704738B50546002940D0BF
:10387C0051F8043C0C1F002BB8BFE41800F0DEF824
:10388C001C4A136833B9636014602846BDE838409D
:10389C0000F0DAB8A34208D9206821188B4201BF86
:1038AC0019685B6809182160EDE71A465B680BB173
:1038BC00A342FAD911685018A0420BD120680144D8
:1038CC00501883421160E0D118685B68084410609E
:1038DC005360DAE702D90C232B60D6E72068211855
:1038EC008B4201BF19685B680918216063605460E2
:1038FC00CBE738BD7403002070B50F4E0C46316811
:10390C00054611B900F0AAFB30602146284600F0AC
:10391C00A5FB431C03D14FF0FF34204670BDC41CE3
:10392C0024F00304A042F8D0211A284600F096FB9C
:10393C000130F2D1EFE700BF700300202DE9F8430E
:10394C00CD1C25F0030508350C2D38BF0C25002D9A
:10395C00064601DBA94204D90C2333600020BDE8E4
:10396C00F883DFF8D48000F069F8D8F800301C46F2
:10397C0044BB29463046FFF7BFFF431C044658D1D1
:10398C00D8F800402746002F43D1002C4BD0236899
:10399C003946304604EB030900F060FB814542D107
:1039AC00216830466D1A2946FFF7A6FF01303AD040
:1039BC0023682B442360D8F800305A6862BBC8F8DF
:1039CC0000700FE02268521B20D40B2A17D9611902
:1039DC00A342256018BF5960636808BFC8F800107F
:1039EC0062514B60304600F02FF804F10B00231DA0
:1039FC0020F00700C21A1CBF1B1AA350AFE7626865
:103A0C00A3420CBFC8F800205A60EBE72346646859
:103A1C00AEE73C467F68B6E71A465B68A342FBD12B
:103A2C0000235360DEE70C233046336000F00CF8C3
:103A3C0094E70560D6E700BF740300200148FFF748
:103A4C0011BF00BF6C0300200148FFF70CBF00BF83
:103A5C006C0300202DE9F0471F468E688246BE425B
:103A6C000C4690460B682DD8B1F90C2012F4906FCF
:103A7C0026D06569096905EB4505A3EB010905EB42
:103A8C00D5757B1C4B446D109D4238BF1D465305AC
:103A9C0027D52946FFF752FF064660B34A462169EF
:103AAC0000F0FAFAA38923F4906343F08003A38116
:103ABC0026614E4426603E466561A5EB0905A5606E
:103ACC00BE4200D93E4632464146206800F0ACFA70
:103ADC000020A3689B1BA360236833442360BDE8CC
:103AEC00F0872A4600F0E6FA06460028E0D1504658
:103AFC002169FFF7B9FE0C23CAF80030A3894FF0F7
:103B0C00FF3043F04003A381E9E700002DE9F04FBB
:103B1C0098468B8907461B060D4614469DB010D55A
:103B2C000B6973B94021FFF709FF2860286130B990
:103B3C000C233B604FF0FF301DB0BDE8F08F4023ED
:103B4C006B610023099320238DF8293030234FF02B
:103B5C000109CDF80C80DFF898818DF82A302346C6
:103B6C009A4613F8012B0AB1252AF9D1BAEB040BAA
:103B7C000BD05B46224629463846FFF76BFF0130D7
:103B8C0000F0A780099A5A4409929AF80030002B49
:103B9C0000F09F8000234FF0FF32CDE905230AF19E
:103BAC00010A049307938DF853301A935446052257
:103BBC0014F8011B4E4800F061FA049AD8B9D006EB
:103BCC0044BF20238DF85330110744BF2B238DF8AD
:103BDC0053309AF800302A2B15D0544600204FF061
:103BEC000A0C079A214611F8013B303B092B4BD9A3
:103BFC00B0B1079214E0A0EB080309FA03F31343E6
:103C0C00A2460493D2E7039B191D1B680391002B5A
:103C1C00BBBF5B4242F0020207930793B8BF04920A
:103C2C0023782E2B0AD163782A2B32D1039B0234B2
:103C3C001A1D1B68039243EAE3730593DFF8B4A0E3
:103C4C0003225046217800F019FA38B14022049B27
:103C5C00A0EB0A00824013430134049314F8011BB7
:103C6C00062225488DF8281000F008FA002836D0D6
:103C7C00224B1BBB039B073323F00703083303932F
:103C8C00099B334409936AE70C4601200CFB023272
:103C9C00A8E700234FF00A0C19460134059320467F
:103CAC0010F8012B303A092A03D9002BC6D0059104
:103CBC00C4E7044601230CFB0121F0E703AB00939E
:103CCC002A4638460E4B04A9AFF30080421C064628
:103CDC00D6D1AB895B063FF52DAF09982CE703AB2A
:103CEC0000932A463846064B04A900F07DF8EDE710
:103CFC002A4200083042000834420008000000004C
:103D0C00613A00082DE9F047164698468A680B6917
:103D1C0007469342B8BF1346336091F843200C46D4
:103D2C00DDF820900AB1013333602368990642BF55
:103D3C00336802333360256815F0060506D104F1AB
:103D4C00190AE36832689B1AAB422BDC94F84330B7
:103D5C002268003B18BF0123920630D441463846F6
:103D6C0004F14302C847013023D02368226903F0D1
:103D7C000603042B14BF002533684FF0000608BF60
:103D8C00E56804F11A0408BFED1A54F8123C08BF98
:103D9C0025EAE5759342C4BF9B1AED18B5421AD1BA
:103DAC00002008E00123524641463846C8470130FE
:103DBC0003D14FF0FF30BDE8F0870135C1E730206B
:103DCC00E11881F843005A1C94F845102244023340
:103DDC0082F84310C2E70123224641463846C847C1
:103DEC000130E6D00136D9E72DE9FF470F7E914629
:103DFC00782F80460C469A460C9E01F1430207D858
:103E0C00622F0AD8002F00F0D380582F00F0BA8010
:103E1C0004F1420684F842703AE0A7F16303152BD3
:103E2C00F6D801A151F823F08D3E0008A13E000800
:103E3C001D3E00081D3E00081D3E00081D3E0008EA
:103E4C00A13E00081D3E00081D3E00081D3E000856
:103E5C001D3E0008A33F0008CB3E00085D3F000854
:103E6C001D3E00081D3E0008C53F00081D3E000811
:103E7C00CB3E00081D3E00081D3E0008653F0008B3
:103E8C0033681A1D1B68326004F1420684F8423014
:103E9C0001239EE033682068191D3160060601D5A8
:103EAC001D6803E04506FBD5B3F90050002D03DA7D
:103EBC002D236D4284F843300A23594811E02168C0
:103ECC003368080653F8045B02D4490648BFADB208
:103EDC006F2F336014BF0A2308235148002184F844
:103EEC0043106668002EA8BF2168A660A4BF21F00D
:103EFC00040121600DB9002E4BD01646B5FBF3F131
:103F0C0003FB1157C75D06F8017D2F46BB420D46DA
:103F1C00F4D9082B0BD12368DF0708D52369616816
:103F2C009942DEBF302306F8013C06F1FF36921BA6
:103F3C0022614B4621464046CDF800A003AAFFF76C
:103F4C00E1FE01304AD14FF0FF3004B0BDE8F087FC
:103F5C00236843F0200323607827324884F84570A7
:103F6C00236831681F0651F8045B02D45F0648BF12
:103F7C00ADB23160D90744BF43F0200323601DB1BB
:103F8C001023ABE72648E9E7236823F020032360DE
:103F9C00F6E71646BDE733682568181D6169306081
:103FAC002E061B6801D5196002E06806FBD5198046
:103FBC00002316462361BCE7336800211A1D3260CA
:103FCC001E686268304600F059F808B1801B6060CA
:103FDC0063682361002384F84330AAE732464946DC
:103FEC0040462369D0470130ADD023689B0713D4DA
:103FFC00E068039B9842B8BF1846A6E701233246F7
:10400C0049464046D04701309DD00135E3680399BD
:10401C005B1AAB42F2DCEBE7002504F11906F5E77D
:10402C003B4200084C420008884210B501EB0204E8
:10403C0002D98442234607D8431EA14208D011F866
:10404C00012B03F8012FF8E7014602448A4200D104
:10405C0010BD13F8014D02F8014DF7E738B50023F8
:10406C00054D044608462B60FDF7F4F9431C02D1BC
:10407C002B6803B1236038BD68030020034610B5DC
:10408C00C9B202449342184601D1002003E00478DF
:10409C0001338C42F6D110BD0A44914200F1FF333A
:1040AC0000D1704710B511F8014B914203F8014F44
:1040BC00F9D110BD2DE9F041804615460C4621B9C9
:1040CC001146BDE8F041FFF739BC2AB9FFF7CCFB2C
:1040DC0000242046BDE8F08100F01AF8854206461F
:1040EC0002D8B5EB500FF4D829464046FFF726FC12
:1040FC0007460028ECD0B5422A46214628BF324656
:10410C00FFF7CAFF21464046FFF7AEFB3C46E0E70F
:10411C0051F8043C181F002BBCBF0B58C01870473B
:10412C00F8B500BFF8BC08BC9E467047F8B500BF98
:08413C00F8BC08BC9E46704768
:10414400534554205245442054494D450000000035
:10415400205245442054494D453A200053455420AB
:10416400475245454E2054494D450000204752458D
:10417400454E2054494D453A2000000053455420F3
:1041840059454C4C4F572054494D45002059454CF6
:104194004C4F572054494D453A2000005345542074
:1041A4005245442054494D450000000020524544E6
:1041B4002054494D453A2000534554204752454523
:1041C4004E2054494D45000020475245454E205449
:1041D400494D453A200000005345542059454C4C64
:1041E4004F572054494D45002059454C4C4F5720BA
:1041F40054494D453A2000002564000000000000A9
:104204000000000001020304060708090000000082
:104214000102030402030405060708090A0B0C0D36
:104224000E0F10100102232D302B2000686C4C005F
:1042340065666745464700303132333435363738A2
:104244003941424344454600303132333435363700
:0C42540038396162636465660000000098
:044260003101000820
:044264000D01000840
:104268000600000006000000060000000100000033
:104278000100000001000000010000000100000032
:104288000100000001000000010000000100000022
:1042980000127A0010000000010000004000002019
:1042A80000000000300200209802002000030020D7
:1042B80000000000000000000000000000000000F6
:1042C80000000000000000000000000000000000E6
:1042D80000000000000000000000000000000000D6
:0C42E800000000000000000000000000CA
:04000005080015B525
:00000001FF
